:100000000C9446000C9465000C9465000C946500FB
:100010000C9465000C9465000C9465000C946500CC
:100020000C9465000C9465000C9465000C946500BC
:100030000C9465000C9465000C9465000C946500AC
:100040000C9465000C9465000C9465000C9465009C
:100050000C9465000C9465000C9465000C9465008C
:100060000C9465000C9465000C9465000C9465007C
:100070000C9465000C9465000C9465000C9465006C
:100080000C9465000C9465000C94650011241FBE4F
:10009000CFEFD0E4DEBFCDBF11E0A0E0B1E0ECEBEC
:1000A000F3E000E00BBF02C007900D92AE30B10745
:1000B000D9F721E0AEE0B1E001C01D92A131B20755
:1000C000E1F70E94A2010C94CA010C940000CF93A6
:1000D000DF9300D00F92CDB7DEB789837B836A832D
:1000E00089818A3031F48A819B81BC018DE00E9434
:1000F000670080EC90E0FC018081882F90E08072A6
:100100009927892BB1F386EC90E02981FC012083AB
:1001100080E090E00F900F900F90DF91CF910895C5
:10012000CF93DF93CDB7DEB780910F01909110018F
:10013000CC01A0E0B0E089309105A105B10508F03F
:10014000CCC084539E4FFC010C94C10181E090E02F
:100150009093100180930F01C1C080E290E0FC01F8
:100160008081882F90E081709927892B39F482E073
:1001700090E09093100180930F01B0C081E090E077
:100180009093100180930F01A9C080E290E0FC01E0
:100190008081882F90E081709927892B39F482E043
:1001A00090E09093100180930F0198C083E090E05D
:1001B0009093100180930F0191C080E290E0FC01C8
:1001C0008081882F90E081709927892B39F084E015
:1001D00090E09093100180930F0180C083E090E045
:1001E0009093100180930F0179C080E290E0FC01B0
:1001F0008081882F90E081709927892B39F484E0E1
:1002000090E09093100180930F0168C085E090E02A
:100210009093100180930F0161C080E290E0FC0197
:100220008081882F90E081709927892B39F086E0B2
:1002300090E09093100180930F0150C085E090E012
:100240009093100180930F0149C080E290E0FC017F
:100250008081882F90E081709927892B39F486E07E
:1002600090E09093100180930F0138C087E090E0F8
:100270009093100180930F0131C080E290E0FC0167
:100280008081882F90E081709927892B39F088E050
:1002900090E09093100180930F0120C087E090E0E0
:1002A0009093100180930F0119C080E290E0FC014F
:1002B0008081882F90E081709927019739F488E038
:1002C00090E09093100180930F0108C081E090E0CE
:1002D0009093100180930F0101C0000080910F01E5
:1002E00090911001CC01A0E0B0E089309105A1050A
:1002F000B105D8F48B529E4FFC010C94C1011092B1
:100300000E0116C010920E0113C085E080930E01FD
:100310000FC08AE080930E010BC084E180930E0130
:1003200007C08FE180930E0103C0000001C00000F0
:1003300085E290E020910E01FC0120830000DF9116
:10034000CF910895CF93DF93CDB7DEB781E290E0F0
:10035000FC01108282E290E02FEFFC01208384E216
:1003600090E02FEFFC01208385E290E0FC011082F9
:100370001092100110920F0110920E010E94900035
:10038000FBCFEE0FFF1F0024001C0BBE0790F69161
:10039000E02D0994F894FFCFA600AD00C500DD0064
:1003A000F5000D0125013D0155017F018201850107
:0C03B0009701890197018D0197019101CF
:0E03BC000000000200000000670000000000CA
:00000001FF
