:100000000C9446000C9465000C9465000C946500FB
:100010000C9465000C9465000C9465000C946500CC
:100020000C9465000C9465000C9465000C946500BC
:100030000C9465000C9465000C9465000C946500AC
:100040000C9465000C9465000C9465000C9465009C
:100050000C9465000C9465000C9465000C9465008C
:100060000C9465000C9465000C9465000C9465007C
:100070000C9465000C9465000C9465000C9465006C
:100080000C9465000C9465000C94650011241FBE4F
:10009000CFEFD0E4DEBFCDBF11E0A0E0B1E0EAE4F5
:1000A000F4E000E00BBF02C007900D92AE30B10744
:1000B000D9F721E0AEE0B1E001C01D92A231B20754
:1000C000E1F70E94D2010C940B020C940000CF9334
:1000D000DF9300D00F92CDB7DEB789837B836A832D
:1000E00089818A3031F48A819B81BC018DE00E9434
:1000F000670080EC90E0FC018081882F90E08072A6
:100100009927892BB1F386EC90E02981FC012083AB
:1001100080E090E00F900F900F90DF91CF910895C5
:10012000CF93DF93CDB7DEB780910E0190910F0191
:10013000CC01A0E0B0E08C309105A105B10508F03C
:10014000FEC0835F9D4FFC010C94020281E090E0B1
:1001500090930F0180930E01F3C080911101882FBD
:1001600090E081709927892B39F082E090E090939C
:100170000F0180930E01E4C081E090E090930F01A5
:1001800080930E01DDC080911101882F90E0817075
:100190009927892B39F082E090E090930F018093AA
:1001A0000E01CEC083E090E090930F0180930E018A
:1001B000C7C080911101882F90E081709927892B09
:1001C00039F084E090E090930F0180930E01B8C065
:1001D00083E090E090930F0180930E01B1C0809175
:1001E0001101882F90E081709927892B39F084E0E4
:1001F00090E090930F0180930E01A2C085E090E003
:1002000090930F0180930E019BC080911101882F64
:1002100090E081709927892B39F086E090E09093E7
:100220000F0180930E018CC085E090E090930F0148
:1002300080930E0185C080911101882F90E081701C
:100240009927892B39F086E090E090930F018093F5
:100250000E0176C087E090E090930F0180930E012D
:100260006FC080911101882F90E081709927892BB0
:1002700039F088E090E090930F0180930E0160C008
:1002800087E090E090930F0180930E0159C0809118
:100290001101882F90E081709927892B39F088E02F
:1002A00090E090930F0180930E014AC089E090E0A6
:1002B00090930F0180930E0143C080911101882F0C
:1002C00090E081709927892B39F08AE090E0909333
:1002D0000F0180930E0134C089E090E090930F01EC
:1002E00080930E012DC080911101882F90E08170C4
:1002F0009927892B39F08AE090E090930F01809341
:100300000E011EC08BE090E090930F0180930E01D0
:1003100017C080911101882F90E081709927892B57
:1003200039F081E090E090930F0180930E0108C0B6
:100330008BE090E090930F0180930E0101C00000CC
:1003400080910E0190910F01CC01A0E0B0E08C30C3
:100350009105A105B105F8F4875E9D4FFC010C9451
:100360000202109210011AC01092100117C085E00D
:100370008093100113C08AE0809310010FC084E1C4
:10038000809310010BC088E28093100107C08FE3B7
:100390008093100103C0000001C000000000DF9145
:1003A000CF910895CF93DF93CDB7DEB781E290E090
:1003B000FC01108282E290E02FEFFC01208384E2B6
:1003C00090E02FEFFC01208385E290E0FC01108299
:1003D00010920F0110920E0180E290E0FC018081EA
:1003E00080958093110183E290E0FC0180818093ED
:1003F00010010E94900085E290E020911001FC0124
:100400002083EACFEE0FFF1F0024001C0BBE0790D5
:10041000F691E02D0994F894FFCFA600AD00C3003B
:10042000D900EF0005011B01310147015D01730196
:100430008901B101B401B701CD01BB01CD01BF01FB
:0A044000CD01C301CD01C701CD01BC
:0E044A0000000002000000006700000000003B
:00000001FF
