:100000000C9446000C945D000C945D000C945D0013
:100010000C945D000C945D000C945D000C945D00EC
:100020000C945D000C945D000C945D000C945D00DC
:100030000C945D000C945D000C945D000C945D00CC
:100040000C945D000C945D000C945D000C945D00BC
:100050000C945D000C945D000C945D000C945D00AC
:100060000C945D000C945D000C945D000C945D009C
:100070000C945D000C945D000C945D000C945D008C
:100080000C945D000C945D000C945D0011241FBE67
:10009000CFEFD0E4DEBFCDBF11E0A0E0B1E0ECEFE8
:1000A000F2E000E00BBF02C007900D92AE30B10746
:1000B000D9F70E9488000C947C010C940000CF9327
:1000C000DF9300D00F92CDB7DEB789837B836A833D
:1000D00089818A3031F48A819B81BC018DE00E9444
:1000E0005F0080EC90E0FC018081882F90E08072BE
:1000F0009927892BB1F386EC90E02981FC012083BC
:1001000080E090E00F900F900F90DF91CF910895D5
:10011000CF93DF930F92CDB7DEB781E290E0FC0181
:10012000108282E290E02FEFFC01208387E290E0D2
:100130002FEFFC01208388E290E0FC0110821982FD
:10014000198280E290E0FC018081882F90E0809508
:1001500090958F709927181619067CF480E290E02C
:10016000FC018081882F90E0809590958F70992771
:1001700003971CF480E28983AAC080E290E0FC012E
:100180008081882F90E0809590958F7099270397B4
:1001900061F080E290E0FC018081882F90E0809502
:1001A00090958F709927049719F480E389838FC005
:1001B00080E290E0FC018081882F90E0809590950E
:1001C0008F709927069761F080E290E0FC018081B2
:1001D000882F90E0809590958F709927059719F456
:1001E00088E3898374C080E290E0FC018081882FDD
:1001F00090E0809590958F7099270997C1F080E2E3
:1002000090E0FC018081882F90E0809590958F7020
:100210009927089761F080E290E0FC018081882FA7
:1002200090E0809590958F709927079719F48CE34B
:1002300089834DC080E290E0FC018081882F90E0AE
:10024000809590958F7099270C97C1F080E290E08F
:10025000FC018081882F90E0809590958F70992780
:100260000B9761F080E290E0FC018081882F90E0A4
:10027000809590958F7099270A9719F48EE389835A
:1002800026C080E290E0FC018081882F90E080957C
:1002900090958F7099270F97C1F080E290E0FC0154
:1002A0008081882F90E0809590958F7099270E9788
:1002B00061F080E290E0FC018081882F90E08095E1
:1002C00090958F7099270D9711F48FE3898380E2C1
:1002D00090E0FC018081882F90E0809590958F7050
:1002E000992705971CF489818064898388E290E0CE
:0C02F0002981FC01208324CFF894FFCF6B
:0E02FC0000000002000000005F000000000093
:00000001FF
