:100000000C9446000C9465000C9465000C946500FB
:100010000C9465000C9465000C9465000C946500CC
:100020000C9465000C9465000C9465000C946500BC
:100030000C9465000C9465000C9465000C946500AC
:100040000C9465000C9465000C9465000C9465009C
:100050000C9465000C9465000C9465000C9465008C
:100060000C9465000C9465000C9465000C9465007C
:100070000C9465000C9465000C9465000C9465006C
:100080000C9465000C9465000C94650011241FBE4F
:10009000CFEFD0E4DEBFCDBF11E0A0E0B1E0ECEAED
:1000A000F3E000E00BBF02C007900D92AE30B10745
:1000B000D9F721E0AEE0B1E001C01D92A031B20756
:1000C000E1F70E949F010C94C6010C940000CF93AD
:1000D000DF9300D00F92CDB7DEB789837B836A832D
:1000E00089818A3031F48A819B81BC018DE00E9434
:1000F000670080EC90E0FC018081882F90E08072A6
:100100009927892BB1F386EC90E02981FC012083AB
:1001100080E090E00F900F900F90DF91CF910895C5
:10012000CF93DF93CDB7DEB780910E0190910F0191
:10013000CC01A0E0B0E087309105A105B10508F041
:10014000B6C088539E4FFC010C94BD0181E090E045
:1001500090930F0180930E01B1C080E290E0FC010A
:100160008081882F90E081709927892B39F482E073
:1001700090E090930F0180930E0119C080E290E00F
:10018000FC018081882F90E080959095827099275E
:10019000029739F484E090E090930F0180930E0170
:1001A00006C081E090E090930F0180930E0180E201
:1001B00090E0FC018081882F90E08095909583707D
:1001C0009927039709F075C086E090E090930F019E
:1001D00080930E016EC083E090E090930F018093B6
:1001E0000E0180E290E0FC018081882F90E08095F4
:1001F000909583709927039709F05DC086E090E0A1
:1002000090930F0180930E0156C080E290E0FC01B4
:100210008081882F90E081709927892B39F483E0C1
:1002200090E090930F0180930E0148C081E090E030
:1002300090930F0180930E0141C085E090E0909370
:100240000F0180930E0180E290E0FC018081882FF5
:1002500090E08095909583709927039771F586E0DB
:1002600090E090930F0180930E0127C080E290E010
:10027000FC018081882F90E080959095827099276D
:10028000029739F485E090E090930F0180930E017E
:1002900015C081E090E090930F0180930E010EC095
:1002A00081E090E090930F0180930E0107C0000061
:1002B00005C0000003C0000001C0000080910E01D5
:1002C00090910F01CC01A0E0B0E087309105A1052D
:1002D000B10550F581539E4FFC010C94BD0186E29F
:1002E00090E0FC018081893018F586E290E0FC0105
:1002F000208188E290E02F5FFC01208319C086E214
:1003000090E0FC0180818823A9F086E290E0FC0166
:10031000208188E290E02150FC0120830BC088E21C
:1003200090E0FC01108207C0000005C0000003C07F
:10033000000001C000000000DF91CF910895CF932D
:10034000DF93CDB7DEB781E290E0FC01108282E25C
:1003500090E02FEFFC01208387E290E02FEFFC017B
:10036000208388E290E027E0FC01208310920F01B7
:1003700010920E010E949000FDCFEE0FFF1F00248F
:10038000001C0BBE0790F691E02D0994F894FFCF66
:10039000A600AD00EB0005011D01360150019601DC
:0C03A00096016F0196017F0196018F010C
:0E03AC000000000200000000670000000000DA
:00000001FF
